{
  "_format": "hh-sol-artifact-1",
  "contractName": "FundMe",
  "sourceName": "contracts/Fundraiser.sol",
  "abi": [
    {
      "inputs": [
        {
          "internalType": "uint256",
          "name": "",
          "type": "uint256"
        }
      ],
      "name": "campaigns",
      "outputs": [
        {
          "internalType": "string",
          "name": "id",
          "type": "string"
        },
        {
          "internalType": "address",
          "name": "owner",
          "type": "address"
        },
        {
          "internalType": "string",
          "name": "title",
          "type": "string"
        },
        {
          "internalType": "string",
          "name": "description",
          "type": "string"
        },
        {
          "internalType": "string",
          "name": "category",
          "type": "string"
        },
        {
          "internalType": "uint256",
          "name": "target",
          "type": "uint256"
        },
        {
          "internalType": "uint256",
          "name": "deadline",
          "type": "uint256"
        },
        {
          "internalType": "uint256",
          "name": "amountCollected",
          "type": "uint256"
        }
      ],
      "stateMutability": "view",
      "type": "function"
    },
    {
      "inputs": [
        {
          "internalType": "string",
          "name": "_id",
          "type": "string"
        },
        {
          "internalType": "address",
          "name": "_owner",
          "type": "address"
        },
        {
          "internalType": "string",
          "name": "_title",
          "type": "string"
        },
        {
          "internalType": "string",
          "name": "_description",
          "type": "string"
        },
        {
          "internalType": "string",
          "name": "_category",
          "type": "string"
        },
        {
          "internalType": "string[]",
          "name": "_images",
          "type": "string[]"
        },
        {
          "internalType": "uint256",
          "name": "_target",
          "type": "uint256"
        },
        {
          "internalType": "uint256",
          "name": "_deadline",
          "type": "uint256"
        }
      ],
      "name": "createCampaign",
      "outputs": [
        {
          "internalType": "uint256",
          "name": "",
          "type": "uint256"
        }
      ],
      "stateMutability": "nonpayable",
      "type": "function"
    },
    {
      "inputs": [
        {
          "internalType": "string",
          "name": "_id",
          "type": "string"
        },
        {
          "internalType": "string",
          "name": "_message",
          "type": "string"
        }
      ],
      "name": "donateToCampaign",
      "outputs": [],
      "stateMutability": "payable",
      "type": "function"
    },
    {
      "inputs": [
        {
          "internalType": "string",
          "name": "_id",
          "type": "string"
        }
      ],
      "name": "getCampaign",
      "outputs": [
        {
          "components": [
            {
              "internalType": "string",
              "name": "id",
              "type": "string"
            },
            {
              "internalType": "address",
              "name": "owner",
              "type": "address"
            },
            {
              "internalType": "string",
              "name": "title",
              "type": "string"
            },
            {
              "internalType": "string",
              "name": "description",
              "type": "string"
            },
            {
              "internalType": "string",
              "name": "category",
              "type": "string"
            },
            {
              "internalType": "string[]",
              "name": "images",
              "type": "string[]"
            },
            {
              "internalType": "uint256",
              "name": "target",
              "type": "uint256"
            },
            {
              "internalType": "uint256",
              "name": "deadline",
              "type": "uint256"
            },
            {
              "internalType": "uint256",
              "name": "amountCollected",
              "type": "uint256"
            },
            {
              "components": [
                {
                  "internalType": "string",
                  "name": "id",
                  "type": "string"
                },
                {
                  "internalType": "address",
                  "name": "donator",
                  "type": "address"
                },
                {
                  "internalType": "uint256",
                  "name": "amount",
                  "type": "uint256"
                },
                {
                  "internalType": "string",
                  "name": "message",
                  "type": "string"
                }
              ],
              "internalType": "struct FundMe.Donation[]",
              "name": "donations",
              "type": "tuple[]"
            }
          ],
          "internalType": "struct FundMe.Campaign",
          "name": "",
          "type": "tuple"
        }
      ],
      "stateMutability": "view",
      "type": "function"
    },
    {
      "inputs": [],
      "name": "getCampaigns",
      "outputs": [
        {
          "components": [
            {
              "internalType": "string",
              "name": "id",
              "type": "string"
            },
            {
              "internalType": "address",
              "name": "owner",
              "type": "address"
            },
            {
              "internalType": "string",
              "name": "title",
              "type": "string"
            },
            {
              "internalType": "string",
              "name": "description",
              "type": "string"
            },
            {
              "internalType": "string",
              "name": "category",
              "type": "string"
            },
            {
              "internalType": "string[]",
              "name": "images",
              "type": "string[]"
            },
            {
              "internalType": "uint256",
              "name": "target",
              "type": "uint256"
            },
            {
              "internalType": "uint256",
              "name": "deadline",
              "type": "uint256"
            },
            {
              "internalType": "uint256",
              "name": "amountCollected",
              "type": "uint256"
            },
            {
              "components": [
                {
                  "internalType": "string",
                  "name": "id",
                  "type": "string"
                },
                {
                  "internalType": "address",
                  "name": "donator",
                  "type": "address"
                },
                {
                  "internalType": "uint256",
                  "name": "amount",
                  "type": "uint256"
                },
                {
                  "internalType": "string",
                  "name": "message",
                  "type": "string"
                }
              ],
              "internalType": "struct FundMe.Donation[]",
              "name": "donations",
              "type": "tuple[]"
            }
          ],
          "internalType": "struct FundMe.Campaign[]",
          "name": "",
          "type": "tuple[]"
        }
      ],
      "stateMutability": "view",
      "type": "function"
    },
    {
      "inputs": [
        {
          "internalType": "uint256",
          "name": "_id",
          "type": "uint256"
        }
      ],
      "name": "getDonations",
      "outputs": [
        {
          "components": [
            {
              "internalType": "string",
              "name": "id",
              "type": "string"
            },
            {
              "internalType": "address",
              "name": "donator",
              "type": "address"
            },
            {
              "internalType": "uint256",
              "name": "amount",
              "type": "uint256"
            },
            {
              "internalType": "string",
              "name": "message",
              "type": "string"
            }
          ],
          "internalType": "struct FundMe.Donation[]",
          "name": "",
          "type": "tuple[]"
        }
      ],
      "stateMutability": "view",
      "type": "function"
    },
    {
      "inputs": [
        {
          "internalType": "address",
          "name": "donatorAddress",
          "type": "address"
        }
      ],
      "name": "getDonationsByDonator",
      "outputs": [
        {
          "components": [
            {
              "internalType": "string",
              "name": "id",
              "type": "string"
            },
            {
              "internalType": "address",
              "name": "donator",
              "type": "address"
            },
            {
              "internalType": "uint256",
              "name": "amount",
              "type": "uint256"
            },
            {
              "internalType": "string",
              "name": "message",
              "type": "string"
            }
          ],
          "internalType": "struct FundMe.Donation[]",
          "name": "",
          "type": "tuple[]"
        }
      ],
      "stateMutability": "view",
      "type": "function"
    },
    {
      "inputs": [
        {
          "internalType": "address",
          "name": "_address",
          "type": "address"
        }
      ],
      "name": "getUserCampaigns",
      "outputs": [
        {
          "components": [
            {
              "internalType": "string",
              "name": "id",
              "type": "string"
            },
            {
              "internalType": "address",
              "name": "owner",
              "type": "address"
            },
            {
              "internalType": "string",
              "name": "title",
              "type": "string"
            },
            {
              "internalType": "string",
              "name": "description",
              "type": "string"
            },
            {
              "internalType": "string",
              "name": "category",
              "type": "string"
            },
            {
              "internalType": "string[]",
              "name": "images",
              "type": "string[]"
            },
            {
              "internalType": "uint256",
              "name": "target",
              "type": "uint256"
            },
            {
              "internalType": "uint256",
              "name": "deadline",
              "type": "uint256"
            },
            {
              "internalType": "uint256",
              "name": "amountCollected",
              "type": "uint256"
            },
            {
              "components": [
                {
                  "internalType": "string",
                  "name": "id",
                  "type": "string"
                },
                {
                  "internalType": "address",
                  "name": "donator",
                  "type": "address"
                },
                {
                  "internalType": "uint256",
                  "name": "amount",
                  "type": "uint256"
                },
                {
                  "internalType": "string",
                  "name": "message",
                  "type": "string"
                }
              ],
              "internalType": "struct FundMe.Donation[]",
              "name": "donations",
              "type": "tuple[]"
            }
          ],
          "internalType": "struct FundMe.Campaign[]",
          "name": "",
          "type": "tuple[]"
        }
      ],
      "stateMutability": "view",
      "type": "function"
    },
    {
      "inputs": [],
      "name": "numberOfCampaigns",
      "outputs": [
        {
          "internalType": "uint256",
          "name": "",
          "type": "uint256"
        }
      ],
      "stateMutability": "view",
      "type": "function"
    }
  ],
  "bytecode": "0x6080604052600060015534801561001557600080fd5b5061384b806100256000396000f3fe6080604052600436106100865760003560e01c8063596d9ce211610059578063596d9ce2146101745780638caae0fe146101b15780639c10f4fe146101cd578063a1e5084c1461020a578063a6b036331461024757610086565b806307ca140d1461008b578063141961bc146100b657806320d159cf146100fa57806352bf36ec14610137575b600080fd5b34801561009757600080fd5b506100a0610272565b6040516100ad919061262a565b60405180910390f35b3480156100c257600080fd5b506100dd60048036038101906100d89190612685565b610278565b6040516100f1989796959493929190612783565b60405180910390f35b34801561010657600080fd5b50610121600480360381019061011c9190612a64565b610500565b60405161012e919061262a565b60405180910390f35b34801561014357600080fd5b5061015e60048036038101906101599190612ba6565b610651565b60405161016b9190612f42565b60405180910390f35b34801561018057600080fd5b5061019b60048036038101906101969190612685565b610e5b565b6040516101a89190612fea565b60405180910390f35b6101cb60048036038101906101c6919061300c565b611053565b005b3480156101d957600080fd5b506101f460048036038101906101ef9190613084565b611379565b6040516102019190612fea565b60405180910390f35b34801561021657600080fd5b50610231600480360381019061022c9190613084565b6116fb565b60405161023e9190613270565b60405180910390f35b34801561025357600080fd5b5061025c611e52565b6040516102699190613270565b60405180910390f35b60015481565b600060205280600052604060002060009150905080600001805461029b906132c1565b80601f01602080910402602001604051908101604052809291908181526020018280546102c7906132c1565b80156103145780601f106102e957610100808354040283529160200191610314565b820191906000526020600020905b8154815290600101906020018083116102f757829003601f168201915b5050505050908060010160009054906101000a900473ffffffffffffffffffffffffffffffffffffffff169080600201805461034f906132c1565b80601f016020809104026020016040519081016040528092919081815260200182805461037b906132c1565b80156103c85780601f1061039d576101008083540402835291602001916103c8565b820191906000526020600020905b8154815290600101906020018083116103ab57829003601f168201915b5050505050908060030180546103dd906132c1565b80601f0160208091040260200160405190810160405280929190818152602001828054610409906132c1565b80156104565780601f1061042b57610100808354040283529160200191610456565b820191906000526020600020905b81548152906001019060200180831161043957829003601f168201915b50505050509080600401805461046b906132c1565b80601f0160208091040260200160405190810160405280929190818152602001828054610497906132c1565b80156104e45780601f106104b9576101008083540402835291602001916104e4565b820191906000526020600020905b8154815290600101906020018083116104c757829003601f168201915b5050505050908060060154908060070154908060080154905088565b6000428211610544576040517f08c379a000000000000000000000000000000000000000000000000000000000815260040161053b90613364565b60405180910390fd5b6000806000600154815260200190815260200160002090508981600001908161056d9190613530565b50888160010160006101000a81548173ffffffffffffffffffffffffffffffffffffffff021916908373ffffffffffffffffffffffffffffffffffffffff160217905550878160020190816105c29190613530565b50868160030190816105d49190613530565b50858160040190816105e69190613530565b50848160050190805190602001906105ff929190612490565b50838160060181905550828160070181905550600081600801819055506001600081548092919061062f90613631565b9190505550600180546106429190613679565b91505098975050505050505050565b6106596124e9565b60005b600154811015610d145760008060008381526020019081526020016000206000018054610688906132c1565b80601f01602080910402602001604051908101604052809291908181526020018280546106b4906132c1565b80156107015780601f106106d657610100808354040283529160200191610701565b820191906000526020600020905b8154815290600101906020018083116106e457829003601f168201915b505050505090508360405160200161071991906136e9565b604051602081830303815290604052805190602001208160405160200161074091906136e9565b6040516020818303038152906040528051906020012003610d005760008060008481526020019081526020016000209050806040518061014001604052908160008201805461078e906132c1565b80601f01602080910402602001604051908101604052809291908181526020018280546107ba906132c1565b80156108075780601f106107dc57610100808354040283529160200191610807565b820191906000526020600020905b8154815290600101906020018083116107ea57829003601f168201915b505050505081526020016001820160009054906101000a900473ffffffffffffffffffffffffffffffffffffffff1673ffffffffffffffffffffffffffffffffffffffff1673ffffffffffffffffffffffffffffffffffffffff168152602001600282018054610876906132c1565b80601f01602080910402602001604051908101604052809291908181526020018280546108a2906132c1565b80156108ef5780601f106108c4576101008083540402835291602001916108ef565b820191906000526020600020905b8154815290600101906020018083116108d257829003601f168201915b50505050508152602001600382018054610908906132c1565b80601f0160208091040260200160405190810160405280929190818152602001828054610934906132c1565b80156109815780601f1061095657610100808354040283529160200191610981565b820191906000526020600020905b81548152906001019060200180831161096457829003601f168201915b5050505050815260200160048201805461099a906132c1565b80601f01602080910402602001604051908101604052809291908181526020018280546109c6906132c1565b8015610a135780601f106109e857610100808354040283529160200191610a13565b820191906000526020600020905b8154815290600101906020018083116109f657829003601f168201915b5050505050815260200160058201805480602002602001604051908101604052809291908181526020016000905b82821015610aed578382906000526020600020018054610a60906132c1565b80601f0160208091040260200160405190810160405280929190818152602001828054610a8c906132c1565b8015610ad95780601f10610aae57610100808354040283529160200191610ad9565b820191906000526020600020905b815481529060010190602001808311610abc57829003601f168201915b505050505081526020019060010190610a41565b50505050815260200160068201548152602001600782015481526020016008820154815260200160098201805480602002602001604051908101604052809291908181526020016000905b82821015610cee5783829060005260206000209060040201604051806080016040529081600082018054610b6b906132c1565b80601f0160208091040260200160405190810160405280929190818152602001828054610b97906132c1565b8015610be45780601f10610bb957610100808354040283529160200191610be4565b820191906000526020600020905b815481529060010190602001808311610bc757829003601f168201915b505050505081526020016001820160009054906101000a900473ffffffffffffffffffffffffffffffffffffffff1673ffffffffffffffffffffffffffffffffffffffff1673ffffffffffffffffffffffffffffffffffffffff16815260200160028201548152602001600382018054610c5d906132c1565b80601f0160208091040260200160405190810160405280929190818152602001828054610c89906132c1565b8015610cd65780601f10610cab57610100808354040283529160200191610cd6565b820191906000526020600020905b815481529060010190602001808311610cb957829003601f168201915b50505050508152505081526020019060010190610b38565b50505050815250509350505050610e56565b508080610d0c90613631565b91505061065c565b50604051806101400160405280604051806020016040528060008152508152602001600073ffffffffffffffffffffffffffffffffffffffff168152602001604051806020016040528060008152508152602001604051806020016040528060008152508152602001604051806020016040528060008152508152602001600067ffffffffffffffff811115610dad57610dac612827565b5b604051908082528060200260200182016040528015610de057816020015b6060815260200190600190039081610dcb5790505b508152602001600081526020016000815260200160008152602001600067ffffffffffffffff811115610e1657610e15612827565b5b604051908082528060200260200182016040528015610e4f57816020015b610e3c612552565b815260200190600190039081610e345790505b5081525090505b919050565b6060600080838152602001908152602001600020600901805480602002602001604051908101604052809291908181526020016000905b828210156110485783829060005260206000209060040201604051806080016040529081600082018054610ec5906132c1565b80601f0160208091040260200160405190810160405280929190818152602001828054610ef1906132c1565b8015610f3e5780601f10610f1357610100808354040283529160200191610f3e565b820191906000526020600020905b815481529060010190602001808311610f2157829003601f168201915b505050505081526020016001820160009054906101000a900473ffffffffffffffffffffffffffffffffffffffff1673ffffffffffffffffffffffffffffffffffffffff1673ffffffffffffffffffffffffffffffffffffffff16815260200160028201548152602001600382018054610fb7906132c1565b80601f0160208091040260200160405190810160405280929190818152602001828054610fe3906132c1565b80156110305780601f1061100557610100808354040283529160200191611030565b820191906000526020600020905b81548152906001019060200180831161101357829003601f168201915b50505050508152505081526020019060010190610e92565b505050509050919050565b61105b612552565b8281600001819052503481604001818152505033816020019073ffffffffffffffffffffffffffffffffffffffff16908173ffffffffffffffffffffffffffffffffffffffff168152505081816060018190525060005b60015481101561137357600080600083815260200190815260200160002060000180546110de906132c1565b80601f016020809104026020016040519081016040528092919081815260200182805461110a906132c1565b80156111575780601f1061112c57610100808354040283529160200191611157565b820191906000526020600020905b81548152906001019060200180831161113a57829003601f168201915b505050505090508460405160200161116f91906136e9565b604051602081830303815290604052805190602001208160405160200161119691906136e9565b604051602081830303815290604052805190602001200361135f576000806000848152602001908152602001600020905060008160010160009054906101000a900473ffffffffffffffffffffffffffffffffffffffff1673ffffffffffffffffffffffffffffffffffffffff163460405161121190613731565b60006040518083038185875af1925050503d806000811461124e576040519150601f19603f3d011682016040523d82523d6000602084013e611253565b606091505b5050905080611297576040517f08c379a000000000000000000000000000000000000000000000000000000000815260040161128e90613792565b60405180910390fd5b8160090185908060018154018082558091505060019003906000526020600020906004020160009091909190915060008201518160000190816112da9190613530565b5060208201518160010160006101000a81548173ffffffffffffffffffffffffffffffffffffffff021916908373ffffffffffffffffffffffffffffffffffffffff1602179055506040820151816002015560608201518160030190816113419190613530565b50505034826008015461135491906137b2565b826008018190555050505b50808061136b90613631565b9150506110b2565b50505050565b60606000805b6001548110156113c25760008082815260200190815260200160002060090180549050826113ad91906137b2565b915080806113ba90613631565b91505061137f565b5060008167ffffffffffffffff8111156113df576113de612827565b5b60405190808252806020026020018201604052801561141857816020015b611405612552565b8152602001906001900390816113fd5790505b5090506000805b6001548110156116ef5760005b600080838152602001908152602001600020600901805490508110156116db578673ffffffffffffffffffffffffffffffffffffffff16600080848152602001908152602001600020600901828154811061148a576114896137e6565b5b906000526020600020906004020160010160009054906101000a900473ffffffffffffffffffffffffffffffffffffffff1673ffffffffffffffffffffffffffffffffffffffff16036116c85760008083815260200190815260200160002060090181815481106114fe576114fd6137e6565b5b9060005260206000209060040201604051806080016040529081600082018054611527906132c1565b80601f0160208091040260200160405190810160405280929190818152602001828054611553906132c1565b80156115a05780601f10611575576101008083540402835291602001916115a0565b820191906000526020600020905b81548152906001019060200180831161158357829003601f168201915b505050505081526020016001820160009054906101000a900473ffffffffffffffffffffffffffffffffffffffff1673ffffffffffffffffffffffffffffffffffffffff1673ffffffffffffffffffffffffffffffffffffffff16815260200160028201548152602001600382018054611619906132c1565b80601f0160208091040260200160405190810160405280929190818152602001828054611645906132c1565b80156116925780601f1061166757610100808354040283529160200191611692565b820191906000526020600020905b81548152906001019060200180831161167557829003601f168201915b5050505050815250508484815181106116ae576116ad6137e6565b5b602002602001018190525082806116c490613631565b9350505b80806116d390613631565b91505061142c565b5080806116e790613631565b91505061141f565b50819350505050919050565b60606000805b60015481101561179b57600080600083815260200190815260200160002060010160009054906101000a900473ffffffffffffffffffffffffffffffffffffffff1690508473ffffffffffffffffffffffffffffffffffffffff168173ffffffffffffffffffffffffffffffffffffffff160361178757828061178390613631565b9350505b50808061179390613631565b915050611701565b5060008167ffffffffffffffff8111156117b8576117b7612827565b5b6040519080825280602002602001820160405280156117f157816020015b6117de6124e9565b8152602001906001900390816117d65790505b5090506000805b600154811015611e4657600080600083815260200190815260200160002060010160009054906101000a900473ffffffffffffffffffffffffffffffffffffffff1690508673ffffffffffffffffffffffffffffffffffffffff168173ffffffffffffffffffffffffffffffffffffffff1603611e32576000808381526020019081526020016000206040518061014001604052908160008201805461189d906132c1565b80601f01602080910402602001604051908101604052809291908181526020018280546118c9906132c1565b80156119165780601f106118eb57610100808354040283529160200191611916565b820191906000526020600020905b8154815290600101906020018083116118f957829003601f168201915b505050505081526020016001820160009054906101000a900473ffffffffffffffffffffffffffffffffffffffff1673ffffffffffffffffffffffffffffffffffffffff1673ffffffffffffffffffffffffffffffffffffffff168152602001600282018054611985906132c1565b80601f01602080910402602001604051908101604052809291908181526020018280546119b1906132c1565b80156119fe5780601f106119d3576101008083540402835291602001916119fe565b820191906000526020600020905b8154815290600101906020018083116119e157829003601f168201915b50505050508152602001600382018054611a17906132c1565b80601f0160208091040260200160405190810160405280929190818152602001828054611a43906132c1565b8015611a905780601f10611a6557610100808354040283529160200191611a90565b820191906000526020600020905b815481529060010190602001808311611a7357829003601f168201915b50505050508152602001600482018054611aa9906132c1565b80601f0160208091040260200160405190810160405280929190818152602001828054611ad5906132c1565b8015611b225780601f10611af757610100808354040283529160200191611b22565b820191906000526020600020905b815481529060010190602001808311611b0557829003601f168201915b5050505050815260200160058201805480602002602001604051908101604052809291908181526020016000905b82821015611bfc578382906000526020600020018054611b6f906132c1565b80601f0160208091040260200160405190810160405280929190818152602001828054611b9b906132c1565b8015611be85780601f10611bbd57610100808354040283529160200191611be8565b820191906000526020600020905b815481529060010190602001808311611bcb57829003601f168201915b505050505081526020019060010190611b50565b50505050815260200160068201548152602001600782015481526020016008820154815260200160098201805480602002602001604051908101604052809291908181526020016000905b82821015611dfd5783829060005260206000209060040201604051806080016040529081600082018054611c7a906132c1565b80601f0160208091040260200160405190810160405280929190818152602001828054611ca6906132c1565b8015611cf35780601f10611cc857610100808354040283529160200191611cf3565b820191906000526020600020905b815481529060010190602001808311611cd657829003601f168201915b505050505081526020016001820160009054906101000a900473ffffffffffffffffffffffffffffffffffffffff1673ffffffffffffffffffffffffffffffffffffffff1673ffffffffffffffffffffffffffffffffffffffff16815260200160028201548152602001600382018054611d6c906132c1565b80601f0160208091040260200160405190810160405280929190818152602001828054611d98906132c1565b8015611de55780601f10611dba57610100808354040283529160200191611de5565b820191906000526020600020905b815481529060010190602001808311611dc857829003601f168201915b50505050508152505081526020019060010190611c47565b5050505081525050848481518110611e1857611e176137e6565b5b60200260200101819052508280611e2e90613631565b9350505b508080611e3e90613631565b9150506117f8565b50819350505050919050565b6060600060015467ffffffffffffffff811115611e7257611e71612827565b5b604051908082528060200260200182016040528015611eab57816020015b611e986124e9565b815260200190600190039081611e905790505b50905060005b60015481101561248857600080600083815260200190815260200160002090508060405180610140016040529081600082018054611eee906132c1565b80601f0160208091040260200160405190810160405280929190818152602001828054611f1a906132c1565b8015611f675780601f10611f3c57610100808354040283529160200191611f67565b820191906000526020600020905b815481529060010190602001808311611f4a57829003601f168201915b505050505081526020016001820160009054906101000a900473ffffffffffffffffffffffffffffffffffffffff1673ffffffffffffffffffffffffffffffffffffffff1673ffffffffffffffffffffffffffffffffffffffff168152602001600282018054611fd6906132c1565b80601f0160208091040260200160405190810160405280929190818152602001828054612002906132c1565b801561204f5780601f106120245761010080835404028352916020019161204f565b820191906000526020600020905b81548152906001019060200180831161203257829003601f168201915b50505050508152602001600382018054612068906132c1565b80601f0160208091040260200160405190810160405280929190818152602001828054612094906132c1565b80156120e15780601f106120b6576101008083540402835291602001916120e1565b820191906000526020600020905b8154815290600101906020018083116120c457829003601f168201915b505050505081526020016004820180546120fa906132c1565b80601f0160208091040260200160405190810160405280929190818152602001828054612126906132c1565b80156121735780601f1061214857610100808354040283529160200191612173565b820191906000526020600020905b81548152906001019060200180831161215657829003601f168201915b5050505050815260200160058201805480602002602001604051908101604052809291908181526020016000905b8282101561224d5783829060005260206000200180546121c0906132c1565b80601f01602080910402602001604051908101604052809291908181526020018280546121ec906132c1565b80156122395780601f1061220e57610100808354040283529160200191612239565b820191906000526020600020905b81548152906001019060200180831161221c57829003601f168201915b5050505050815260200190600101906121a1565b50505050815260200160068201548152602001600782015481526020016008820154815260200160098201805480602002602001604051908101604052809291908181526020016000905b8282101561244e57838290600052602060002090600402016040518060800160405290816000820180546122cb906132c1565b80601f01602080910402602001604051908101604052809291908181526020018280546122f7906132c1565b80156123445780601f1061231957610100808354040283529160200191612344565b820191906000526020600020905b81548152906001019060200180831161232757829003601f168201915b505050505081526020016001820160009054906101000a900473ffffffffffffffffffffffffffffffffffffffff1673ffffffffffffffffffffffffffffffffffffffff1673ffffffffffffffffffffffffffffffffffffffff168152602001600282015481526020016003820180546123bd906132c1565b80601f01602080910402602001604051908101604052809291908181526020018280546123e9906132c1565b80156124365780601f1061240b57610100808354040283529160200191612436565b820191906000526020600020905b81548152906001019060200180831161241957829003601f168201915b50505050508152505081526020019060010190612298565b5050505081525050838381518110612469576124686137e6565b5b602002602001018190525050808061248090613631565b915050611eb1565b508091505090565b8280548282559060005260206000209081019282156124d8579160200282015b828111156124d75782518290816124c79190613530565b50916020019190600101906124b0565b5b5090506124e59190612590565b5090565b60405180610140016040528060608152602001600073ffffffffffffffffffffffffffffffffffffffff16815260200160608152602001606081526020016060815260200160608152602001600081526020016000815260200160008152602001606081525090565b604051806080016040528060608152602001600073ffffffffffffffffffffffffffffffffffffffff16815260200160008152602001606081525090565b5b808211156125b057600081816125a791906125b4565b50600101612591565b5090565b5080546125c0906132c1565b6000825580601f106125d257506125f1565b601f0160209004906000526020600020908101906125f091906125f4565b5b50565b5b8082111561260d5760008160009055506001016125f5565b5090565b6000819050919050565b61262481612611565b82525050565b600060208201905061263f600083018461261b565b92915050565b6000604051905090565b600080fd5b600080fd5b61266281612611565b811461266d57600080fd5b50565b60008135905061267f81612659565b92915050565b60006020828403121561269b5761269a61264f565b5b60006126a984828501612670565b91505092915050565b600081519050919050565b600082825260208201905092915050565b60005b838110156126ec5780820151818401526020810190506126d1565b60008484015250505050565b6000601f19601f8301169050919050565b6000612714826126b2565b61271e81856126bd565b935061272e8185602086016126ce565b612737816126f8565b840191505092915050565b600073ffffffffffffffffffffffffffffffffffffffff82169050919050565b600061276d82612742565b9050919050565b61277d81612762565b82525050565b600061010082019050818103600083015261279e818b612709565b90506127ad602083018a612774565b81810360408301526127bf8189612709565b905081810360608301526127d38188612709565b905081810360808301526127e78187612709565b90506127f660a083018661261b565b61280360c083018561261b565b61281060e083018461261b565b9998505050505050505050565b600080fd5b600080fd5b7f4e487b7100000000000000000000000000000000000000000000000000000000600052604160045260246000fd5b61285f826126f8565b810181811067ffffffffffffffff8211171561287e5761287d612827565b5b80604052505050565b6000612891612645565b905061289d8282612856565b919050565b600067ffffffffffffffff8211156128bd576128bc612827565b5b6128c6826126f8565b9050602081019050919050565b82818337600083830152505050565b60006128f56128f0846128a2565b612887565b90508281526020810184848401111561291157612910612822565b5b61291c8482856128d3565b509392505050565b600082601f8301126129395761293861281d565b5b81356129498482602086016128e2565b91505092915050565b61295b81612762565b811461296657600080fd5b50565b60008135905061297881612952565b92915050565b600067ffffffffffffffff82111561299957612998612827565b5b602082029050602081019050919050565b600080fd5b60006129c26129bd8461297e565b612887565b905080838252602082019050602084028301858111156129e5576129e46129aa565b5b835b81811015612a2c57803567ffffffffffffffff811115612a0a57612a0961281d565b5b808601612a178982612924565b855260208501945050506020810190506129e7565b5050509392505050565b600082601f830112612a4b57612a4a61281d565b5b8135612a5b8482602086016129af565b91505092915050565b600080600080600080600080610100898b031215612a8557612a8461264f565b5b600089013567ffffffffffffffff811115612aa357612aa2612654565b5b612aaf8b828c01612924565b9850506020612ac08b828c01612969565b975050604089013567ffffffffffffffff811115612ae157612ae0612654565b5b612aed8b828c01612924565b965050606089013567ffffffffffffffff811115612b0e57612b0d612654565b5b612b1a8b828c01612924565b955050608089013567ffffffffffffffff811115612b3b57612b3a612654565b5b612b478b828c01612924565b94505060a089013567ffffffffffffffff811115612b6857612b67612654565b5b612b748b828c01612a36565b93505060c0612b858b828c01612670565b92505060e0612b968b828c01612670565b9150509295985092959890939650565b600060208284031215612bbc57612bbb61264f565b5b600082013567ffffffffffffffff811115612bda57612bd9612654565b5b612be684828501612924565b91505092915050565b600082825260208201905092915050565b6000612c0b826126b2565b612c158185612bef565b9350612c258185602086016126ce565b612c2e816126f8565b840191505092915050565b612c4281612762565b82525050565b600081519050919050565b600082825260208201905092915050565b6000819050602082019050919050565b6000612c808383612c00565b905092915050565b6000602082019050919050565b6000612ca082612c48565b612caa8185612c53565b935083602082028501612cbc85612c64565b8060005b85811015612cf85784840389528151612cd98582612c74565b9450612ce483612c88565b925060208a01995050600181019050612cc0565b50829750879550505050505092915050565b612d1381612611565b82525050565b600081519050919050565b600082825260208201905092915050565b6000819050602082019050919050565b60006080830160008301518482036000860152612d628282612c00565b9150506020830151612d776020860182612c39565b506040830151612d8a6040860182612d0a565b5060608301518482036060860152612da28282612c00565b9150508091505092915050565b6000612dbb8383612d45565b905092915050565b6000602082019050919050565b6000612ddb82612d19565b612de58185612d24565b935083602082028501612df785612d35565b8060005b85811015612e335784840389528151612e148582612daf565b9450612e1f83612dc3565b925060208a01995050600181019050612dfb565b50829750879550505050505092915050565b6000610140830160008301518482036000860152612e638282612c00565b9150506020830151612e786020860182612c39565b5060408301518482036040860152612e908282612c00565b91505060608301518482036060860152612eaa8282612c00565b91505060808301518482036080860152612ec48282612c00565b91505060a083015184820360a0860152612ede8282612c95565b91505060c0830151612ef360c0860182612d0a565b5060e0830151612f0660e0860182612d0a565b50610100830151612f1b610100860182612d0a565b50610120830151848203610120860152612f358282612dd0565b9150508091505092915050565b60006020820190508181036000830152612f5c8184612e45565b905092915050565b600082825260208201905092915050565b6000612f8082612d19565b612f8a8185612f64565b935083602082028501612f9c85612d35565b8060005b85811015612fd85784840389528151612fb98582612daf565b9450612fc483612dc3565b925060208a01995050600181019050612fa0565b50829750879550505050505092915050565b600060208201905081810360008301526130048184612f75565b905092915050565b600080604083850312156130235761302261264f565b5b600083013567ffffffffffffffff81111561304157613040612654565b5b61304d85828601612924565b925050602083013567ffffffffffffffff81111561306e5761306d612654565b5b61307a85828601612924565b9150509250929050565b60006020828403121561309a5761309961264f565b5b60006130a884828501612969565b91505092915050565b600081519050919050565b600082825260208201905092915050565b6000819050602082019050919050565b60006101408301600083015184820360008601526130fb8282612c00565b91505060208301516131106020860182612c39565b50604083015184820360408601526131288282612c00565b915050606083015184820360608601526131428282612c00565b9150506080830151848203608086015261315c8282612c00565b91505060a083015184820360a08601526131768282612c95565b91505060c083015161318b60c0860182612d0a565b5060e083015161319e60e0860182612d0a565b506101008301516131b3610100860182612d0a565b506101208301518482036101208601526131cd8282612dd0565b9150508091505092915050565b60006131e683836130dd565b905092915050565b6000602082019050919050565b6000613206826130b1565b61321081856130bc565b935083602082028501613222856130cd565b8060005b8581101561325e578484038952815161323f85826131da565b945061324a836131ee565b925060208a01995050600181019050613226565b50829750879550505050505092915050565b6000602082019050818103600083015261328a81846131fb565b905092915050565b7f4e487b7100000000000000000000000000000000000000000000000000000000600052602260045260246000fd5b600060028204905060018216806132d957607f821691505b6020821081036132ec576132eb613292565b5b50919050565b7f54686520646561646c696e652073686f756c642062652061206461746520696e60008201527f20746865206675747572652e0000000000000000000000000000000000000000602082015250565b600061334e602c836126bd565b9150613359826132f2565b604082019050919050565b6000602082019050818103600083015261337d81613341565b9050919050565b60008190508160005260206000209050919050565b60006020601f8301049050919050565b600082821b905092915050565b6000600883026133e67fffffffffffffffffffffffffffffffffffffffffffffffffffffffffffffffff826133a9565b6133f086836133a9565b95508019841693508086168417925050509392505050565b6000819050919050565b600061342d61342861342384612611565b613408565b612611565b9050919050565b6000819050919050565b61344783613412565b61345b61345382613434565b8484546133b6565b825550505050565b600090565b613470613463565b61347b81848461343e565b505050565b5b8181101561349f57613494600082613468565b600181019050613481565b5050565b601f8211156134e4576134b581613384565b6134be84613399565b810160208510156134cd578190505b6134e16134d985613399565b830182613480565b50505b505050565b600082821c905092915050565b6000613507600019846008026134e9565b1980831691505092915050565b600061352083836134f6565b9150826002028217905092915050565b613539826126b2565b67ffffffffffffffff81111561355257613551612827565b5b61355c82546132c1565b6135678282856134a3565b600060209050601f83116001811461359a5760008415613588578287015190505b6135928582613514565b8655506135fa565b601f1984166135a886613384565b60005b828110156135d0578489015182556001820191506020850194506020810190506135ab565b868310156135ed57848901516135e9601f8916826134f6565b8355505b6001600288020188555050505b505050505050565b7f4e487b7100000000000000000000000000000000000000000000000000000000600052601160045260246000fd5b600061363c82612611565b91507fffffffffffffffffffffffffffffffffffffffffffffffffffffffffffffffff820361366e5761366d613602565b5b600182019050919050565b600061368482612611565b915061368f83612611565b92508282039050818111156136a7576136a6613602565b5b92915050565b600081905092915050565b60006136c3826126b2565b6136cd81856136ad565b93506136dd8185602086016126ce565b80840191505092915050565b60006136f582846136b8565b915081905092915050565b600081905092915050565b50565b600061371b600083613700565b91506137268261370b565b600082019050919050565b600061373c8261370e565b9150819050919050565b7f4661696c656420746f2073656e642066756e6473000000000000000000000000600082015250565b600061377c6014836126bd565b915061378782613746565b602082019050919050565b600060208201905081810360008301526137ab8161376f565b9050919050565b60006137bd82612611565b91506137c883612611565b92508282019050808211156137e0576137df613602565b5b92915050565b7f4e487b7100000000000000000000000000000000000000000000000000000000600052603260045260246000fdfea26469706673582212203ac5b90397fc8f01b070bef609378c90f9c521561260b4a6f30e0147e4fc099064736f6c63430008130033",
  "linkReferences": {},
  "deployedLinkReferences": {}
}