{
  "_format": "hh-sol-artifact-1",
  "contractName": "FundMe",
  "sourceName": "contracts/Fundraiser.sol",
  "abi": [
    {
      "inputs": [
        {
          "internalType": "uint256",
          "name": "",
          "type": "uint256"
        }
      ],
      "name": "campaigns",
      "outputs": [
        {
          "internalType": "string",
          "name": "id",
          "type": "string"
        },
        {
          "internalType": "address",
          "name": "owner",
          "type": "address"
        },
        {
          "internalType": "string",
          "name": "title",
          "type": "string"
        },
        {
          "internalType": "string",
          "name": "description",
          "type": "string"
        },
        {
          "internalType": "string",
          "name": "category",
          "type": "string"
        },
        {
          "internalType": "uint256",
          "name": "target",
          "type": "uint256"
        },
        {
          "internalType": "uint256",
          "name": "deadline",
          "type": "uint256"
        },
        {
          "internalType": "uint256",
          "name": "createdAt",
          "type": "uint256"
        },
        {
          "internalType": "uint256",
          "name": "amountCollected",
          "type": "uint256"
        }
      ],
      "stateMutability": "view",
      "type": "function"
    },
    {
      "inputs": [
        {
          "internalType": "string",
          "name": "_id",
          "type": "string"
        },
        {
          "internalType": "address",
          "name": "_owner",
          "type": "address"
        },
        {
          "internalType": "string",
          "name": "_title",
          "type": "string"
        },
        {
          "internalType": "string",
          "name": "_description",
          "type": "string"
        },
        {
          "internalType": "string",
          "name": "_category",
          "type": "string"
        },
        {
          "internalType": "string[]",
          "name": "_images",
          "type": "string[]"
        },
        {
          "internalType": "uint256",
          "name": "_target",
          "type": "uint256"
        },
        {
          "internalType": "uint256",
          "name": "_deadline",
          "type": "uint256"
        },
        {
          "internalType": "uint256",
          "name": "_createdAt",
          "type": "uint256"
        }
      ],
      "name": "createCampaign",
      "outputs": [
        {
          "internalType": "uint256",
          "name": "",
          "type": "uint256"
        }
      ],
      "stateMutability": "nonpayable",
      "type": "function"
    },
    {
      "inputs": [
        {
          "internalType": "string",
          "name": "_id",
          "type": "string"
        },
        {
          "internalType": "string",
          "name": "_message",
          "type": "string"
        }
      ],
      "name": "donateToCampaign",
      "outputs": [],
      "stateMutability": "payable",
      "type": "function"
    },
    {
      "inputs": [
        {
          "internalType": "string",
          "name": "_id",
          "type": "string"
        }
      ],
      "name": "getCampaign",
      "outputs": [
        {
          "components": [
            {
              "internalType": "string",
              "name": "id",
              "type": "string"
            },
            {
              "internalType": "address",
              "name": "owner",
              "type": "address"
            },
            {
              "internalType": "string",
              "name": "title",
              "type": "string"
            },
            {
              "internalType": "string",
              "name": "description",
              "type": "string"
            },
            {
              "internalType": "string",
              "name": "category",
              "type": "string"
            },
            {
              "internalType": "string[]",
              "name": "images",
              "type": "string[]"
            },
            {
              "internalType": "uint256",
              "name": "target",
              "type": "uint256"
            },
            {
              "internalType": "uint256",
              "name": "deadline",
              "type": "uint256"
            },
            {
              "internalType": "uint256",
              "name": "createdAt",
              "type": "uint256"
            },
            {
              "internalType": "uint256",
              "name": "amountCollected",
              "type": "uint256"
            },
            {
              "components": [
                {
                  "internalType": "string",
                  "name": "id",
                  "type": "string"
                },
                {
                  "internalType": "address",
                  "name": "donator",
                  "type": "address"
                },
                {
                  "internalType": "uint256",
                  "name": "amount",
                  "type": "uint256"
                },
                {
                  "internalType": "uint256",
                  "name": "createdAt",
                  "type": "uint256"
                },
                {
                  "internalType": "string",
                  "name": "message",
                  "type": "string"
                }
              ],
              "internalType": "struct FundMe.Donation[]",
              "name": "donations",
              "type": "tuple[]"
            }
          ],
          "internalType": "struct FundMe.Campaign",
          "name": "",
          "type": "tuple"
        }
      ],
      "stateMutability": "view",
      "type": "function"
    },
    {
      "inputs": [],
      "name": "getCampaigns",
      "outputs": [
        {
          "components": [
            {
              "internalType": "string",
              "name": "id",
              "type": "string"
            },
            {
              "internalType": "address",
              "name": "owner",
              "type": "address"
            },
            {
              "internalType": "string",
              "name": "title",
              "type": "string"
            },
            {
              "internalType": "string",
              "name": "description",
              "type": "string"
            },
            {
              "internalType": "string",
              "name": "category",
              "type": "string"
            },
            {
              "internalType": "string[]",
              "name": "images",
              "type": "string[]"
            },
            {
              "internalType": "uint256",
              "name": "target",
              "type": "uint256"
            },
            {
              "internalType": "uint256",
              "name": "deadline",
              "type": "uint256"
            },
            {
              "internalType": "uint256",
              "name": "createdAt",
              "type": "uint256"
            },
            {
              "internalType": "uint256",
              "name": "amountCollected",
              "type": "uint256"
            },
            {
              "components": [
                {
                  "internalType": "string",
                  "name": "id",
                  "type": "string"
                },
                {
                  "internalType": "address",
                  "name": "donator",
                  "type": "address"
                },
                {
                  "internalType": "uint256",
                  "name": "amount",
                  "type": "uint256"
                },
                {
                  "internalType": "uint256",
                  "name": "createdAt",
                  "type": "uint256"
                },
                {
                  "internalType": "string",
                  "name": "message",
                  "type": "string"
                }
              ],
              "internalType": "struct FundMe.Donation[]",
              "name": "donations",
              "type": "tuple[]"
            }
          ],
          "internalType": "struct FundMe.Campaign[]",
          "name": "",
          "type": "tuple[]"
        }
      ],
      "stateMutability": "view",
      "type": "function"
    },
    {
      "inputs": [
        {
          "internalType": "uint256",
          "name": "_id",
          "type": "uint256"
        }
      ],
      "name": "getDonations",
      "outputs": [
        {
          "components": [
            {
              "internalType": "string",
              "name": "id",
              "type": "string"
            },
            {
              "internalType": "address",
              "name": "donator",
              "type": "address"
            },
            {
              "internalType": "uint256",
              "name": "amount",
              "type": "uint256"
            },
            {
              "internalType": "uint256",
              "name": "createdAt",
              "type": "uint256"
            },
            {
              "internalType": "string",
              "name": "message",
              "type": "string"
            }
          ],
          "internalType": "struct FundMe.Donation[]",
          "name": "",
          "type": "tuple[]"
        }
      ],
      "stateMutability": "view",
      "type": "function"
    },
    {
      "inputs": [
        {
          "internalType": "address",
          "name": "donatorAddress",
          "type": "address"
        }
      ],
      "name": "getDonationsByDonator",
      "outputs": [
        {
          "components": [
            {
              "internalType": "string",
              "name": "id",
              "type": "string"
            },
            {
              "internalType": "address",
              "name": "donator",
              "type": "address"
            },
            {
              "internalType": "uint256",
              "name": "amount",
              "type": "uint256"
            },
            {
              "internalType": "uint256",
              "name": "createdAt",
              "type": "uint256"
            },
            {
              "internalType": "string",
              "name": "message",
              "type": "string"
            }
          ],
          "internalType": "struct FundMe.Donation[]",
          "name": "",
          "type": "tuple[]"
        }
      ],
      "stateMutability": "view",
      "type": "function"
    },
    {
      "inputs": [
        {
          "internalType": "address",
          "name": "_address",
          "type": "address"
        }
      ],
      "name": "getUserCampaigns",
      "outputs": [
        {
          "components": [
            {
              "internalType": "string",
              "name": "id",
              "type": "string"
            },
            {
              "internalType": "address",
              "name": "owner",
              "type": "address"
            },
            {
              "internalType": "string",
              "name": "title",
              "type": "string"
            },
            {
              "internalType": "string",
              "name": "description",
              "type": "string"
            },
            {
              "internalType": "string",
              "name": "category",
              "type": "string"
            },
            {
              "internalType": "string[]",
              "name": "images",
              "type": "string[]"
            },
            {
              "internalType": "uint256",
              "name": "target",
              "type": "uint256"
            },
            {
              "internalType": "uint256",
              "name": "deadline",
              "type": "uint256"
            },
            {
              "internalType": "uint256",
              "name": "createdAt",
              "type": "uint256"
            },
            {
              "internalType": "uint256",
              "name": "amountCollected",
              "type": "uint256"
            },
            {
              "components": [
                {
                  "internalType": "string",
                  "name": "id",
                  "type": "string"
                },
                {
                  "internalType": "address",
                  "name": "donator",
                  "type": "address"
                },
                {
                  "internalType": "uint256",
                  "name": "amount",
                  "type": "uint256"
                },
                {
                  "internalType": "uint256",
                  "name": "createdAt",
                  "type": "uint256"
                },
                {
                  "internalType": "string",
                  "name": "message",
                  "type": "string"
                }
              ],
              "internalType": "struct FundMe.Donation[]",
              "name": "donations",
              "type": "tuple[]"
            }
          ],
          "internalType": "struct FundMe.Campaign[]",
          "name": "",
          "type": "tuple[]"
        }
      ],
      "stateMutability": "view",
      "type": "function"
    },
    {
      "inputs": [],
      "name": "numberOfCampaigns",
      "outputs": [
        {
          "internalType": "uint256",
          "name": "",
          "type": "uint256"
        }
      ],
      "stateMutability": "view",
      "type": "function"
    }
  ],
  "bytecode": "0x6080604052600060015534801561001557600080fd5b50613935806100256000396000f3fe6080604052600436106100865760003560e01c8063690c017611610059578063690c0176146101755780638caae0fe146101b25780639c10f4fe146101ce578063a1e5084c1461020b578063a6b036331461024857610086565b806307ca140d1461008b578063141961bc146100b657806352bf36ec146100fb578063596d9ce214610138575b600080fd5b34801561009757600080fd5b506100a0610273565b6040516100ad91906126b4565b60405180910390f35b3480156100c257600080fd5b506100dd60048036038101906100d8919061270f565b610279565b6040516100f29998979695949392919061280d565b60405180910390f35b34801561010757600080fd5b50610122600480360381019061011d91906129eb565b610507565b60405161012f9190612daf565b60405180910390f35b34801561014457600080fd5b5061015f600480360381019061015a919061270f565b610d2c565b60405161016c9190612e57565b60405180910390f35b34801561018157600080fd5b5061019c60048036038101906101979190612f8b565b610f2e565b6040516101a991906126b4565b60405180910390f35b6101cc60048036038101906101c791906130e1565b611089565b005b3480156101da57600080fd5b506101f560048036038101906101f09190613159565b6113c3565b6040516102029190612e57565b60405180910390f35b34801561021757600080fd5b50610232600480360381019061022d9190613159565b61174f565b60405161023f919061335a565b60405180910390f35b34801561025457600080fd5b5061025d611eba565b60405161026a919061335a565b60405180910390f35b60015481565b600060205280600052604060002060009150905080600001805461029c906133ab565b80601f01602080910402602001604051908101604052809291908181526020018280546102c8906133ab565b80156103155780601f106102ea57610100808354040283529160200191610315565b820191906000526020600020905b8154815290600101906020018083116102f857829003601f168201915b5050505050908060010160009054906101000a900473ffffffffffffffffffffffffffffffffffffffff1690806002018054610350906133ab565b80601f016020809104026020016040519081016040528092919081815260200182805461037c906133ab565b80156103c95780601f1061039e576101008083540402835291602001916103c9565b820191906000526020600020905b8154815290600101906020018083116103ac57829003601f168201915b5050505050908060030180546103de906133ab565b80601f016020809104026020016040519081016040528092919081815260200182805461040a906133ab565b80156104575780601f1061042c57610100808354040283529160200191610457565b820191906000526020600020905b81548152906001019060200180831161043a57829003601f168201915b50505050509080600401805461046c906133ab565b80601f0160208091040260200160405190810160405280929190818152602001828054610498906133ab565b80156104e55780601f106104ba576101008083540402835291602001916104e5565b820191906000526020600020905b8154815290600101906020018083116104c857829003601f168201915b5050505050908060060154908060070154908060080154908060090154905089565b61050f61250c565b60005b600154811015610bde576000806000838152602001908152602001600020600001805461053e906133ab565b80601f016020809104026020016040519081016040528092919081815260200182805461056a906133ab565b80156105b75780601f1061058c576101008083540402835291602001916105b7565b820191906000526020600020905b81548152906001019060200180831161059a57829003601f168201915b50505050509050836040516020016105cf9190613418565b60405160208183030381529060405280519060200120816040516020016105f69190613418565b6040516020818303038152906040528051906020012003610bca57600080600084815260200190815260200160002090508060405180610160016040529081600082018054610644906133ab565b80601f0160208091040260200160405190810160405280929190818152602001828054610670906133ab565b80156106bd5780601f10610692576101008083540402835291602001916106bd565b820191906000526020600020905b8154815290600101906020018083116106a057829003601f168201915b505050505081526020016001820160009054906101000a900473ffffffffffffffffffffffffffffffffffffffff1673ffffffffffffffffffffffffffffffffffffffff1673ffffffffffffffffffffffffffffffffffffffff16815260200160028201805461072c906133ab565b80601f0160208091040260200160405190810160405280929190818152602001828054610758906133ab565b80156107a55780601f1061077a576101008083540402835291602001916107a5565b820191906000526020600020905b81548152906001019060200180831161078857829003601f168201915b505050505081526020016003820180546107be906133ab565b80601f01602080910402602001604051908101604052809291908181526020018280546107ea906133ab565b80156108375780601f1061080c57610100808354040283529160200191610837565b820191906000526020600020905b81548152906001019060200180831161081a57829003601f168201915b50505050508152602001600482018054610850906133ab565b80601f016020809104026020016040519081016040528092919081815260200182805461087c906133ab565b80156108c95780601f1061089e576101008083540402835291602001916108c9565b820191906000526020600020905b8154815290600101906020018083116108ac57829003601f168201915b5050505050815260200160058201805480602002602001604051908101604052809291908181526020016000905b828210156109a3578382906000526020600020018054610916906133ab565b80601f0160208091040260200160405190810160405280929190818152602001828054610942906133ab565b801561098f5780601f106109645761010080835404028352916020019161098f565b820191906000526020600020905b81548152906001019060200180831161097257829003601f168201915b5050505050815260200190600101906108f7565b50505050815260200160068201548152602001600782015481526020016008820154815260200160098201548152602001600a8201805480602002602001604051908101604052809291908181526020016000905b82821015610bb857838290600052602060002090600502016040518060a0016040529081600082018054610a2b906133ab565b80601f0160208091040260200160405190810160405280929190818152602001828054610a57906133ab565b8015610aa45780601f10610a7957610100808354040283529160200191610aa4565b820191906000526020600020905b815481529060010190602001808311610a8757829003601f168201915b505050505081526020016001820160009054906101000a900473ffffffffffffffffffffffffffffffffffffffff1673ffffffffffffffffffffffffffffffffffffffff1673ffffffffffffffffffffffffffffffffffffffff1681526020016002820154815260200160038201548152602001600482018054610b27906133ab565b80601f0160208091040260200160405190810160405280929190818152602001828054610b53906133ab565b8015610ba05780601f10610b7557610100808354040283529160200191610ba0565b820191906000526020600020905b815481529060010190602001808311610b8357829003601f168201915b505050505081525050815260200190600101906109f8565b50505050815250509350505050610d27565b508080610bd69061345e565b915050610512565b50604051806101600160405280604051806020016040528060008152508152602001600073ffffffffffffffffffffffffffffffffffffffff168152602001604051806020016040528060008152508152602001604051806020016040528060008152508152602001604051806020016040528060008152508152602001600067ffffffffffffffff811115610c7757610c766128c0565b5b604051908082528060200260200182016040528015610caa57816020015b6060815260200190600190039081610c955790505b50815260200160008152602001600081526020016000815260200160008152602001600067ffffffffffffffff811115610ce757610ce66128c0565b5b604051908082528060200260200182016040528015610d2057816020015b610d0d61257c565b815260200190600190039081610d055790505b5081525090505b919050565b6060600080838152602001908152602001600020600a01805480602002602001604051908101604052809291908181526020016000905b82821015610f2357838290600052602060002090600502016040518060a0016040529081600082018054610d96906133ab565b80601f0160208091040260200160405190810160405280929190818152602001828054610dc2906133ab565b8015610e0f5780601f10610de457610100808354040283529160200191610e0f565b820191906000526020600020905b815481529060010190602001808311610df257829003601f168201915b505050505081526020016001820160009054906101000a900473ffffffffffffffffffffffffffffffffffffffff1673ffffffffffffffffffffffffffffffffffffffff1673ffffffffffffffffffffffffffffffffffffffff1681526020016002820154815260200160038201548152602001600482018054610e92906133ab565b80601f0160208091040260200160405190810160405280929190818152602001828054610ebe906133ab565b8015610f0b5780601f10610ee057610100808354040283529160200191610f0b565b820191906000526020600020905b815481529060010190602001808311610eee57829003601f168201915b50505050508152505081526020019060010190610d63565b505050509050919050565b6000428311610f72576040517f08c379a0000000000000000000000000000000000000000000000000000000008152600401610f6990613518565b60405180910390fd5b6000806000600154815260200190815260200160002090508a816000019081610f9b91906136e4565b50898160010160006101000a81548173ffffffffffffffffffffffffffffffffffffffff021916908373ffffffffffffffffffffffffffffffffffffffff16021790555088816002019081610ff091906136e4565b508781600301908161100291906136e4565b508681600401908161101491906136e4565b508581600501908051906020019061102d9291906125c1565b5084816006018190555082816008018190555083816007018190555060008160090181905550600160008154809291906110669061345e565b91905055506001805461107991906137b6565b9150509998505050505050505050565b61109161257c565b8281600001819052503481604001818152505033816020019073ffffffffffffffffffffffffffffffffffffffff16908173ffffffffffffffffffffffffffffffffffffffff16815250508181608001819052504281606001818152505060005b6001548110156113bd576000806000838152602001908152602001600020600001805461111e906133ab565b80601f016020809104026020016040519081016040528092919081815260200182805461114a906133ab565b80156111975780601f1061116c57610100808354040283529160200191611197565b820191906000526020600020905b81548152906001019060200180831161117a57829003601f168201915b50505050509050846040516020016111af9190613418565b60405160208183030381529060405280519060200120816040516020016111d69190613418565b60405160208183030381529060405280519060200120036113a9576000806000848152602001908152602001600020905060008160010160009054906101000a900473ffffffffffffffffffffffffffffffffffffffff1673ffffffffffffffffffffffffffffffffffffffff16346040516112519061381b565b60006040518083038185875af1925050503d806000811461128e576040519150601f19603f3d011682016040523d82523d6000602084013e611293565b606091505b50509050806112d7576040517f08c379a00000000000000000000000000000000000000000000000000000000081526004016112ce9061387c565b60405180910390fd5b81600a01859080600181540180825580915050600190039060005260206000209060050201600090919091909150600082015181600001908161131a91906136e4565b5060208201518160010160006101000a81548173ffffffffffffffffffffffffffffffffffffffff021916908373ffffffffffffffffffffffffffffffffffffffff1602179055506040820151816002015560608201518160030155608082015181600401908161138b91906136e4565b50505034826009015461139e919061389c565b826009018190555050505b5080806113b59061345e565b9150506110f2565b50505050565b60606000805b60015481101561140c57600080828152602001908152602001600020600a0180549050826113f7919061389c565b915080806114049061345e565b9150506113c9565b5060008167ffffffffffffffff811115611429576114286128c0565b5b60405190808252806020026020018201604052801561146257816020015b61144f61257c565b8152602001906001900390816114475790505b5090506000805b6001548110156117435760005b600080838152602001908152602001600020600a018054905081101561172f578673ffffffffffffffffffffffffffffffffffffffff16600080848152602001908152602001600020600a0182815481106114d4576114d36138d0565b5b906000526020600020906005020160010160009054906101000a900473ffffffffffffffffffffffffffffffffffffffff1673ffffffffffffffffffffffffffffffffffffffff160361171c57600080838152602001908152602001600020600a018181548110611548576115476138d0565b5b90600052602060002090600502016040518060a0016040529081600082018054611571906133ab565b80601f016020809104026020016040519081016040528092919081815260200182805461159d906133ab565b80156115ea5780601f106115bf576101008083540402835291602001916115ea565b820191906000526020600020905b8154815290600101906020018083116115cd57829003601f168201915b505050505081526020016001820160009054906101000a900473ffffffffffffffffffffffffffffffffffffffff1673ffffffffffffffffffffffffffffffffffffffff1673ffffffffffffffffffffffffffffffffffffffff168152602001600282015481526020016003820154815260200160048201805461166d906133ab565b80601f0160208091040260200160405190810160405280929190818152602001828054611699906133ab565b80156116e65780601f106116bb576101008083540402835291602001916116e6565b820191906000526020600020905b8154815290600101906020018083116116c957829003601f168201915b505050505081525050848481518110611702576117016138d0565b5b602002602001018190525082806117189061345e565b9350505b80806117279061345e565b915050611476565b50808061173b9061345e565b915050611469565b50819350505050919050565b60606000805b6001548110156117ef57600080600083815260200190815260200160002060010160009054906101000a900473ffffffffffffffffffffffffffffffffffffffff1690508473ffffffffffffffffffffffffffffffffffffffff168173ffffffffffffffffffffffffffffffffffffffff16036117db5782806117d79061345e565b9350505b5080806117e79061345e565b915050611755565b5060008167ffffffffffffffff81111561180c5761180b6128c0565b5b60405190808252806020026020018201604052801561184557816020015b61183261250c565b81526020019060019003908161182a5790505b5090506000805b600154811015611eae57600080600083815260200190815260200160002060010160009054906101000a900473ffffffffffffffffffffffffffffffffffffffff1690508673ffffffffffffffffffffffffffffffffffffffff168173ffffffffffffffffffffffffffffffffffffffff1603611e9a57600080838152602001908152602001600020604051806101600160405290816000820180546118f1906133ab565b80601f016020809104026020016040519081016040528092919081815260200182805461191d906133ab565b801561196a5780601f1061193f5761010080835404028352916020019161196a565b820191906000526020600020905b81548152906001019060200180831161194d57829003601f168201915b505050505081526020016001820160009054906101000a900473ffffffffffffffffffffffffffffffffffffffff1673ffffffffffffffffffffffffffffffffffffffff1673ffffffffffffffffffffffffffffffffffffffff1681526020016002820180546119d9906133ab565b80601f0160208091040260200160405190810160405280929190818152602001828054611a05906133ab565b8015611a525780601f10611a2757610100808354040283529160200191611a52565b820191906000526020600020905b815481529060010190602001808311611a3557829003601f168201915b50505050508152602001600382018054611a6b906133ab565b80601f0160208091040260200160405190810160405280929190818152602001828054611a97906133ab565b8015611ae45780601f10611ab957610100808354040283529160200191611ae4565b820191906000526020600020905b815481529060010190602001808311611ac757829003601f168201915b50505050508152602001600482018054611afd906133ab565b80601f0160208091040260200160405190810160405280929190818152602001828054611b29906133ab565b8015611b765780601f10611b4b57610100808354040283529160200191611b76565b820191906000526020600020905b815481529060010190602001808311611b5957829003601f168201915b5050505050815260200160058201805480602002602001604051908101604052809291908181526020016000905b82821015611c50578382906000526020600020018054611bc3906133ab565b80601f0160208091040260200160405190810160405280929190818152602001828054611bef906133ab565b8015611c3c5780601f10611c1157610100808354040283529160200191611c3c565b820191906000526020600020905b815481529060010190602001808311611c1f57829003601f168201915b505050505081526020019060010190611ba4565b50505050815260200160068201548152602001600782015481526020016008820154815260200160098201548152602001600a8201805480602002602001604051908101604052809291908181526020016000905b82821015611e6557838290600052602060002090600502016040518060a0016040529081600082018054611cd8906133ab565b80601f0160208091040260200160405190810160405280929190818152602001828054611d04906133ab565b8015611d515780601f10611d2657610100808354040283529160200191611d51565b820191906000526020600020905b815481529060010190602001808311611d3457829003601f168201915b505050505081526020016001820160009054906101000a900473ffffffffffffffffffffffffffffffffffffffff1673ffffffffffffffffffffffffffffffffffffffff1673ffffffffffffffffffffffffffffffffffffffff1681526020016002820154815260200160038201548152602001600482018054611dd4906133ab565b80601f0160208091040260200160405190810160405280929190818152602001828054611e00906133ab565b8015611e4d5780601f10611e2257610100808354040283529160200191611e4d565b820191906000526020600020905b815481529060010190602001808311611e3057829003601f168201915b50505050508152505081526020019060010190611ca5565b5050505081525050848481518110611e8057611e7f6138d0565b5b60200260200101819052508280611e969061345e565b9350505b508080611ea69061345e565b91505061184c565b50819350505050919050565b6060600060015467ffffffffffffffff811115611eda57611ed96128c0565b5b604051908082528060200260200182016040528015611f1357816020015b611f0061250c565b815260200190600190039081611ef85790505b50905060005b60015481101561250457600080600083815260200190815260200160002090508060405180610160016040529081600082018054611f56906133ab565b80601f0160208091040260200160405190810160405280929190818152602001828054611f82906133ab565b8015611fcf5780601f10611fa457610100808354040283529160200191611fcf565b820191906000526020600020905b815481529060010190602001808311611fb257829003601f168201915b505050505081526020016001820160009054906101000a900473ffffffffffffffffffffffffffffffffffffffff1673ffffffffffffffffffffffffffffffffffffffff1673ffffffffffffffffffffffffffffffffffffffff16815260200160028201805461203e906133ab565b80601f016020809104026020016040519081016040528092919081815260200182805461206a906133ab565b80156120b75780601f1061208c576101008083540402835291602001916120b7565b820191906000526020600020905b81548152906001019060200180831161209a57829003601f168201915b505050505081526020016003820180546120d0906133ab565b80601f01602080910402602001604051908101604052809291908181526020018280546120fc906133ab565b80156121495780601f1061211e57610100808354040283529160200191612149565b820191906000526020600020905b81548152906001019060200180831161212c57829003601f168201915b50505050508152602001600482018054612162906133ab565b80601f016020809104026020016040519081016040528092919081815260200182805461218e906133ab565b80156121db5780601f106121b0576101008083540402835291602001916121db565b820191906000526020600020905b8154815290600101906020018083116121be57829003601f168201915b5050505050815260200160058201805480602002602001604051908101604052809291908181526020016000905b828210156122b5578382906000526020600020018054612228906133ab565b80601f0160208091040260200160405190810160405280929190818152602001828054612254906133ab565b80156122a15780601f10612276576101008083540402835291602001916122a1565b820191906000526020600020905b81548152906001019060200180831161228457829003601f168201915b505050505081526020019060010190612209565b50505050815260200160068201548152602001600782015481526020016008820154815260200160098201548152602001600a8201805480602002602001604051908101604052809291908181526020016000905b828210156124ca57838290600052602060002090600502016040518060a001604052908160008201805461233d906133ab565b80601f0160208091040260200160405190810160405280929190818152602001828054612369906133ab565b80156123b65780601f1061238b576101008083540402835291602001916123b6565b820191906000526020600020905b81548152906001019060200180831161239957829003601f168201915b505050505081526020016001820160009054906101000a900473ffffffffffffffffffffffffffffffffffffffff1673ffffffffffffffffffffffffffffffffffffffff1673ffffffffffffffffffffffffffffffffffffffff1681526020016002820154815260200160038201548152602001600482018054612439906133ab565b80601f0160208091040260200160405190810160405280929190818152602001828054612465906133ab565b80156124b25780601f10612487576101008083540402835291602001916124b2565b820191906000526020600020905b81548152906001019060200180831161249557829003601f168201915b5050505050815250508152602001906001019061230a565b50505050815250508383815181106124e5576124e46138d0565b5b60200260200101819052505080806124fc9061345e565b915050611f19565b508091505090565b60405180610160016040528060608152602001600073ffffffffffffffffffffffffffffffffffffffff1681526020016060815260200160608152602001606081526020016060815260200160008152602001600081526020016000815260200160008152602001606081525090565b6040518060a0016040528060608152602001600073ffffffffffffffffffffffffffffffffffffffff1681526020016000815260200160008152602001606081525090565b828054828255906000526020600020908101928215612609579160200282015b828111156126085782518290816125f891906136e4565b50916020019190600101906125e1565b5b509050612616919061261a565b5090565b5b8082111561263a5760008181612631919061263e565b5060010161261b565b5090565b50805461264a906133ab565b6000825580601f1061265c575061267b565b601f01602090049060005260206000209081019061267a919061267e565b5b50565b5b8082111561269757600081600090555060010161267f565b5090565b6000819050919050565b6126ae8161269b565b82525050565b60006020820190506126c960008301846126a5565b92915050565b6000604051905090565b600080fd5b600080fd5b6126ec8161269b565b81146126f757600080fd5b50565b600081359050612709816126e3565b92915050565b600060208284031215612725576127246126d9565b5b6000612733848285016126fa565b91505092915050565b600081519050919050565b600082825260208201905092915050565b60005b8381101561277657808201518184015260208101905061275b565b60008484015250505050565b6000601f19601f8301169050919050565b600061279e8261273c565b6127a88185612747565b93506127b8818560208601612758565b6127c181612782565b840191505092915050565b600073ffffffffffffffffffffffffffffffffffffffff82169050919050565b60006127f7826127cc565b9050919050565b612807816127ec565b82525050565b6000610120820190508181036000830152612828818c612793565b9050612837602083018b6127fe565b8181036040830152612849818a612793565b9050818103606083015261285d8189612793565b905081810360808301526128718188612793565b905061288060a08301876126a5565b61288d60c08301866126a5565b61289a60e08301856126a5565b6128a86101008301846126a5565b9a9950505050505050505050565b600080fd5b600080fd5b7f4e487b7100000000000000000000000000000000000000000000000000000000600052604160045260246000fd5b6128f882612782565b810181811067ffffffffffffffff82111715612917576129166128c0565b5b80604052505050565b600061292a6126cf565b905061293682826128ef565b919050565b600067ffffffffffffffff821115612956576129556128c0565b5b61295f82612782565b9050602081019050919050565b82818337600083830152505050565b600061298e6129898461293b565b612920565b9050828152602081018484840111156129aa576129a96128bb565b5b6129b584828561296c565b509392505050565b600082601f8301126129d2576129d16128b6565b5b81356129e284826020860161297b565b91505092915050565b600060208284031215612a0157612a006126d9565b5b600082013567ffffffffffffffff811115612a1f57612a1e6126de565b5b612a2b848285016129bd565b91505092915050565b600082825260208201905092915050565b6000612a508261273c565b612a5a8185612a34565b9350612a6a818560208601612758565b612a7381612782565b840191505092915050565b612a87816127ec565b82525050565b600081519050919050565b600082825260208201905092915050565b6000819050602082019050919050565b6000612ac58383612a45565b905092915050565b6000602082019050919050565b6000612ae582612a8d565b612aef8185612a98565b935083602082028501612b0185612aa9565b8060005b85811015612b3d5784840389528151612b1e8582612ab9565b9450612b2983612acd565b925060208a01995050600181019050612b05565b50829750879550505050505092915050565b612b588161269b565b82525050565b600081519050919050565b600082825260208201905092915050565b6000819050602082019050919050565b600060a0830160008301518482036000860152612ba78282612a45565b9150506020830151612bbc6020860182612a7e565b506040830151612bcf6040860182612b4f565b506060830151612be26060860182612b4f565b5060808301518482036080860152612bfa8282612a45565b9150508091505092915050565b6000612c138383612b8a565b905092915050565b6000602082019050919050565b6000612c3382612b5e565b612c3d8185612b69565b935083602082028501612c4f85612b7a565b8060005b85811015612c8b5784840389528151612c6c8582612c07565b9450612c7783612c1b565b925060208a01995050600181019050612c53565b50829750879550505050505092915050565b6000610160830160008301518482036000860152612cbb8282612a45565b9150506020830151612cd06020860182612a7e565b5060408301518482036040860152612ce88282612a45565b91505060608301518482036060860152612d028282612a45565b91505060808301518482036080860152612d1c8282612a45565b91505060a083015184820360a0860152612d368282612ada565b91505060c0830151612d4b60c0860182612b4f565b5060e0830151612d5e60e0860182612b4f565b50610100830151612d73610100860182612b4f565b50610120830151612d88610120860182612b4f565b50610140830151848203610140860152612da28282612c28565b9150508091505092915050565b60006020820190508181036000830152612dc98184612c9d565b905092915050565b600082825260208201905092915050565b6000612ded82612b5e565b612df78185612dd1565b935083602082028501612e0985612b7a565b8060005b85811015612e455784840389528151612e268582612c07565b9450612e3183612c1b565b925060208a01995050600181019050612e0d565b50829750879550505050505092915050565b60006020820190508181036000830152612e718184612de2565b905092915050565b612e82816127ec565b8114612e8d57600080fd5b50565b600081359050612e9f81612e79565b92915050565b600067ffffffffffffffff821115612ec057612ebf6128c0565b5b602082029050602081019050919050565b600080fd5b6000612ee9612ee484612ea5565b612920565b90508083825260208201905060208402830185811115612f0c57612f0b612ed1565b5b835b81811015612f5357803567ffffffffffffffff811115612f3157612f306128b6565b5b808601612f3e89826129bd565b85526020850194505050602081019050612f0e565b5050509392505050565b600082601f830112612f7257612f716128b6565b5b8135612f82848260208601612ed6565b91505092915050565b60008060008060008060008060006101208a8c031215612fae57612fad6126d9565b5b60008a013567ffffffffffffffff811115612fcc57612fcb6126de565b5b612fd88c828d016129bd565b9950506020612fe98c828d01612e90565b98505060408a013567ffffffffffffffff81111561300a576130096126de565b5b6130168c828d016129bd565b97505060608a013567ffffffffffffffff811115613037576130366126de565b5b6130438c828d016129bd565b96505060808a013567ffffffffffffffff811115613064576130636126de565b5b6130708c828d016129bd565b95505060a08a013567ffffffffffffffff811115613091576130906126de565b5b61309d8c828d01612f5d565b94505060c06130ae8c828d016126fa565b93505060e06130bf8c828d016126fa565b9250506101006130d18c828d016126fa565b9150509295985092959850929598565b600080604083850312156130f8576130f76126d9565b5b600083013567ffffffffffffffff811115613116576131156126de565b5b613122858286016129bd565b925050602083013567ffffffffffffffff811115613143576131426126de565b5b61314f858286016129bd565b9150509250929050565b60006020828403121561316f5761316e6126d9565b5b600061317d84828501612e90565b91505092915050565b600081519050919050565b600082825260208201905092915050565b6000819050602082019050919050565b60006101608301600083015184820360008601526131d08282612a45565b91505060208301516131e56020860182612a7e565b50604083015184820360408601526131fd8282612a45565b915050606083015184820360608601526132178282612a45565b915050608083015184820360808601526132318282612a45565b91505060a083015184820360a086015261324b8282612ada565b91505060c083015161326060c0860182612b4f565b5060e083015161327360e0860182612b4f565b50610100830151613288610100860182612b4f565b5061012083015161329d610120860182612b4f565b506101408301518482036101408601526132b78282612c28565b9150508091505092915050565b60006132d083836131b2565b905092915050565b6000602082019050919050565b60006132f082613186565b6132fa8185613191565b93508360208202850161330c856131a2565b8060005b85811015613348578484038952815161332985826132c4565b9450613334836132d8565b925060208a01995050600181019050613310565b50829750879550505050505092915050565b6000602082019050818103600083015261337481846132e5565b905092915050565b7f4e487b7100000000000000000000000000000000000000000000000000000000600052602260045260246000fd5b600060028204905060018216806133c357607f821691505b6020821081036133d6576133d561337c565b5b50919050565b600081905092915050565b60006133f28261273c565b6133fc81856133dc565b935061340c818560208601612758565b80840191505092915050565b600061342482846133e7565b915081905092915050565b7f4e487b7100000000000000000000000000000000000000000000000000000000600052601160045260246000fd5b60006134698261269b565b91507fffffffffffffffffffffffffffffffffffffffffffffffffffffffffffffffff820361349b5761349a61342f565b5b600182019050919050565b7f54686520646561646c696e652073686f756c642062652061206461746520696e60008201527f20746865206675747572652e0000000000000000000000000000000000000000602082015250565b6000613502602c83612747565b915061350d826134a6565b604082019050919050565b60006020820190508181036000830152613531816134f5565b9050919050565b60008190508160005260206000209050919050565b60006020601f8301049050919050565b600082821b905092915050565b60006008830261359a7fffffffffffffffffffffffffffffffffffffffffffffffffffffffffffffffff8261355d565b6135a4868361355d565b95508019841693508086168417925050509392505050565b6000819050919050565b60006135e16135dc6135d78461269b565b6135bc565b61269b565b9050919050565b6000819050919050565b6135fb836135c6565b61360f613607826135e8565b84845461356a565b825550505050565b600090565b613624613617565b61362f8184846135f2565b505050565b5b818110156136535761364860008261361c565b600181019050613635565b5050565b601f8211156136985761366981613538565b6136728461354d565b81016020851015613681578190505b61369561368d8561354d565b830182613634565b50505b505050565b600082821c905092915050565b60006136bb6000198460080261369d565b1980831691505092915050565b60006136d483836136aa565b9150826002028217905092915050565b6136ed8261273c565b67ffffffffffffffff811115613706576137056128c0565b5b61371082546133ab565b61371b828285613657565b600060209050601f83116001811461374e576000841561373c578287015190505b61374685826136c8565b8655506137ae565b601f19841661375c86613538565b60005b828110156137845784890151825560018201915060208501945060208101905061375f565b868310156137a1578489015161379d601f8916826136aa565b8355505b6001600288020188555050505b505050505050565b60006137c18261269b565b91506137cc8361269b565b92508282039050818111156137e4576137e361342f565b5b92915050565b600081905092915050565b50565b60006138056000836137ea565b9150613810826137f5565b600082019050919050565b6000613826826137f8565b9150819050919050565b7f4661696c656420746f2073656e642066756e6473000000000000000000000000600082015250565b6000613866601483612747565b915061387182613830565b602082019050919050565b6000602082019050818103600083015261389581613859565b9050919050565b60006138a78261269b565b91506138b28361269b565b92508282019050808211156138ca576138c961342f565b5b92915050565b7f4e487b7100000000000000000000000000000000000000000000000000000000600052603260045260246000fdfea2646970667358221220a6329f8c61c714dbfe25945bd01a72c36d6a0597d6463bcc810c3eedc39c509864736f6c63430008130033",
  "linkReferences": {},
  "deployedLinkReferences": {}
}