{
  "_format": "hh-sol-artifact-1",
  "contractName": "Twitter",
  "sourceName": "contracts/Twitter.sol",
  "abi": [
    {
      "inputs": [
        {
          "internalType": "string",
          "name": "_tweet",
          "type": "string"
        }
      ],
      "name": "createTweet",
      "outputs": [],
      "stateMutability": "nonpayable",
      "type": "function"
    },
    {
      "inputs": [
        {
          "internalType": "address",
          "name": "_owner",
          "type": "address"
        },
        {
          "internalType": "uint256",
          "name": "_i",
          "type": "uint256"
        }
      ],
      "name": "getTweet",
      "outputs": [
        {
          "components": [
            {
              "internalType": "address",
              "name": "author",
              "type": "address"
            },
            {
              "internalType": "string",
              "name": "content",
              "type": "string"
            },
            {
              "internalType": "uint256",
              "name": "timestamp",
              "type": "uint256"
            },
            {
              "internalType": "uint256",
              "name": "likes",
              "type": "uint256"
            }
          ],
          "internalType": "struct Twitter.Tweet",
          "name": "",
          "type": "tuple"
        }
      ],
      "stateMutability": "view",
      "type": "function"
    },
    {
      "inputs": [
        {
          "internalType": "address",
          "name": "_owner",
          "type": "address"
        }
      ],
      "name": "getTweets",
      "outputs": [
        {
          "components": [
            {
              "internalType": "address",
              "name": "author",
              "type": "address"
            },
            {
              "internalType": "string",
              "name": "content",
              "type": "string"
            },
            {
              "internalType": "uint256",
              "name": "timestamp",
              "type": "uint256"
            },
            {
              "internalType": "uint256",
              "name": "likes",
              "type": "uint256"
            }
          ],
          "internalType": "struct Twitter.Tweet[]",
          "name": "",
          "type": "tuple[]"
        }
      ],
      "stateMutability": "view",
      "type": "function"
    },
    {
      "inputs": [
        {
          "internalType": "address",
          "name": "",
          "type": "address"
        },
        {
          "internalType": "uint256",
          "name": "",
          "type": "uint256"
        }
      ],
      "name": "tweets",
      "outputs": [
        {
          "internalType": "address",
          "name": "author",
          "type": "address"
        },
        {
          "internalType": "string",
          "name": "content",
          "type": "string"
        },
        {
          "internalType": "uint256",
          "name": "timestamp",
          "type": "uint256"
        },
        {
          "internalType": "uint256",
          "name": "likes",
          "type": "uint256"
        }
      ],
      "stateMutability": "view",
      "type": "function"
    }
  ],
  "bytecode": "0x608060405234801561001057600080fd5b50611016806100206000396000f3fe608060405234801561001057600080fd5b506004361061004c5760003560e01c806305a1b4a914610051578063112f54e3146100845780637c9cd2bc146100b45780639e92b093146100d0575b600080fd5b61006b6004803603810190610066919061074e565b610100565b60405161007b949392919061083c565b60405180910390f35b61009e6004803603810190610099919061074e565b6101f5565b6040516100ab9190610953565b60405180910390f35b6100ce60048036038101906100c99190610aaa565b61036a565b005b6100ea60048036038101906100e59190610af3565b6104cf565b6040516100f79190610c45565b60405180910390f35b6000602052816000526040600020818154811061011c57600080fd5b9060005260206000209060040201600091509150508060000160009054906101000a900473ffffffffffffffffffffffffffffffffffffffff169080600101805461016690610c96565b80601f016020809104026020016040519081016040528092919081815260200182805461019290610c96565b80156101df5780601f106101b4576101008083540402835291602001916101df565b820191906000526020600020905b8154815290600101906020018083116101c257829003601f168201915b5050505050908060020154908060030154905084565b6101fd610668565b6000808473ffffffffffffffffffffffffffffffffffffffff1673ffffffffffffffffffffffffffffffffffffffff168152602001908152602001600020828154811061024d5761024c610cc7565b5b90600052602060002090600402016040518060800160405290816000820160009054906101000a900473ffffffffffffffffffffffffffffffffffffffff1673ffffffffffffffffffffffffffffffffffffffff1673ffffffffffffffffffffffffffffffffffffffff1681526020016001820180546102cc90610c96565b80601f01602080910402602001604051908101604052809291908181526020018280546102f890610c96565b80156103455780601f1061031a57610100808354040283529160200191610345565b820191906000526020600020905b81548152906001019060200180831161032857829003601f168201915b5050505050815260200160028201548152602001600382015481525050905092915050565b61011861ffff16815111156103b4576040517f08c379a00000000000000000000000000000000000000000000000000000000081526004016103ab90610d42565b60405180910390fd5b600060405180608001604052803373ffffffffffffffffffffffffffffffffffffffff168152602001838152602001428152602001600081525090506000803373ffffffffffffffffffffffffffffffffffffffff1673ffffffffffffffffffffffffffffffffffffffff16815260200190815260200160002081908060018154018082558091505060019003906000526020600020906004020160009091909190915060008201518160000160006101000a81548173ffffffffffffffffffffffffffffffffffffffff021916908373ffffffffffffffffffffffffffffffffffffffff16021790555060208201518160010190816104b49190610f0e565b50604082015181600201556060820151816003015550505050565b60606000808373ffffffffffffffffffffffffffffffffffffffff1673ffffffffffffffffffffffffffffffffffffffff168152602001908152602001600020805480602002602001604051908101604052809291908181526020016000905b8282101561065d57838290600052602060002090600402016040518060800160405290816000820160009054906101000a900473ffffffffffffffffffffffffffffffffffffffff1673ffffffffffffffffffffffffffffffffffffffff1673ffffffffffffffffffffffffffffffffffffffff1681526020016001820180546105b890610c96565b80601f01602080910402602001604051908101604052809291908181526020018280546105e490610c96565b80156106315780601f1061060657610100808354040283529160200191610631565b820191906000526020600020905b81548152906001019060200180831161061457829003601f168201915b50505050508152602001600282015481526020016003820154815250508152602001906001019061052f565b505050509050919050565b6040518060800160405280600073ffffffffffffffffffffffffffffffffffffffff1681526020016060815260200160008152602001600081525090565b6000604051905090565b600080fd5b600080fd5b600073ffffffffffffffffffffffffffffffffffffffff82169050919050565b60006106e5826106ba565b9050919050565b6106f5816106da565b811461070057600080fd5b50565b600081359050610712816106ec565b92915050565b6000819050919050565b61072b81610718565b811461073657600080fd5b50565b60008135905061074881610722565b92915050565b60008060408385031215610765576107646106b0565b5b600061077385828601610703565b925050602061078485828601610739565b9150509250929050565b610797816106da565b82525050565b600081519050919050565b600082825260208201905092915050565b60005b838110156107d75780820151818401526020810190506107bc565b60008484015250505050565b6000601f19601f8301169050919050565b60006107ff8261079d565b61080981856107a8565b93506108198185602086016107b9565b610822816107e3565b840191505092915050565b61083681610718565b82525050565b6000608082019050610851600083018761078e565b818103602083015261086381866107f4565b9050610872604083018561082d565b61087f606083018461082d565b95945050505050565b610891816106da565b82525050565b600082825260208201905092915050565b60006108b38261079d565b6108bd8185610897565b93506108cd8185602086016107b9565b6108d6816107e3565b840191505092915050565b6108ea81610718565b82525050565b60006080830160008301516109086000860182610888565b506020830151848203602086015261092082826108a8565b915050604083015161093560408601826108e1565b50606083015161094860608601826108e1565b508091505092915050565b6000602082019050818103600083015261096d81846108f0565b905092915050565b600080fd5b600080fd5b7f4e487b7100000000000000000000000000000000000000000000000000000000600052604160045260246000fd5b6109b7826107e3565b810181811067ffffffffffffffff821117156109d6576109d561097f565b5b80604052505050565b60006109e96106a6565b90506109f582826109ae565b919050565b600067ffffffffffffffff821115610a1557610a1461097f565b5b610a1e826107e3565b9050602081019050919050565b82818337600083830152505050565b6000610a4d610a48846109fa565b6109df565b905082815260208101848484011115610a6957610a6861097a565b5b610a74848285610a2b565b509392505050565b600082601f830112610a9157610a90610975565b5b8135610aa1848260208601610a3a565b91505092915050565b600060208284031215610ac057610abf6106b0565b5b600082013567ffffffffffffffff811115610ade57610add6106b5565b5b610aea84828501610a7c565b91505092915050565b600060208284031215610b0957610b086106b0565b5b6000610b1784828501610703565b91505092915050565b600081519050919050565b600082825260208201905092915050565b6000819050602082019050919050565b6000608083016000830151610b646000860182610888565b5060208301518482036020860152610b7c82826108a8565b9150506040830151610b9160408601826108e1565b506060830151610ba460608601826108e1565b508091505092915050565b6000610bbb8383610b4c565b905092915050565b6000602082019050919050565b6000610bdb82610b20565b610be58185610b2b565b935083602082028501610bf785610b3c565b8060005b85811015610c335784840389528151610c148582610baf565b9450610c1f83610bc3565b925060208a01995050600181019050610bfb565b50829750879550505050505092915050565b60006020820190508181036000830152610c5f8184610bd0565b905092915050565b7f4e487b7100000000000000000000000000000000000000000000000000000000600052602260045260246000fd5b60006002820490506001821680610cae57607f821691505b602082108103610cc157610cc0610c67565b5b50919050565b7f4e487b7100000000000000000000000000000000000000000000000000000000600052603260045260246000fd5b7f547765657420697320746f6f206c6f6e672062726f2100000000000000000000600082015250565b6000610d2c6016836107a8565b9150610d3782610cf6565b602082019050919050565b60006020820190508181036000830152610d5b81610d1f565b9050919050565b60008190508160005260206000209050919050565b60006020601f8301049050919050565b600082821b905092915050565b600060088302610dc47fffffffffffffffffffffffffffffffffffffffffffffffffffffffffffffffff82610d87565b610dce8683610d87565b95508019841693508086168417925050509392505050565b6000819050919050565b6000610e0b610e06610e0184610718565b610de6565b610718565b9050919050565b6000819050919050565b610e2583610df0565b610e39610e3182610e12565b848454610d94565b825550505050565b600090565b610e4e610e41565b610e59818484610e1c565b505050565b5b81811015610e7d57610e72600082610e46565b600181019050610e5f565b5050565b601f821115610ec257610e9381610d62565b610e9c84610d77565b81016020851015610eab578190505b610ebf610eb785610d77565b830182610e5e565b50505b505050565b600082821c905092915050565b6000610ee560001984600802610ec7565b1980831691505092915050565b6000610efe8383610ed4565b9150826002028217905092915050565b610f178261079d565b67ffffffffffffffff811115610f3057610f2f61097f565b5b610f3a8254610c96565b610f45828285610e81565b600060209050601f831160018114610f785760008415610f66578287015190505b610f708582610ef2565b865550610fd8565b601f198416610f8686610d62565b60005b82811015610fae57848901518255600182019150602085019450602081019050610f89565b86831015610fcb5784890151610fc7601f891682610ed4565b8355505b6001600288020188555050505b50505050505056fea2646970667358221220d54de85c4a1c81aefd9a2656be492952658049d09d79ac1ff9a55bd09b04ba1964736f6c63430008130033",
  "linkReferences": {},
  "deployedLinkReferences": {}
}